:1000000012C02CC02BC02AC029C028C027C026C0BF
:1000100084C024C024C022C021C020C01FC01EC074
:100020001DC01CC01BC011241FBECFE5D4E0DEBF25
:10003000CDBF10E0A0E6B0E0EAEAF3E002C0059030
:100040000D92AA36B107D9F710E0AAE6B0E001C0D8
:100050001D92A737B107E1F733D0A5C1D1CF1F92C9
:100060000F920FB60F9211240F900FBE0F901F909A
:100070001895089518BA8CE287BB15BA14BA12BA4B
:1000800011BA82E083BF12BE1FBC8EBD1DBC1CBC5A
:1000900017BC16BC1BBC1ABC19BC18BC12BC15BCC6
:1000A00014BC13BC15BE84E089BF80E888B910BEBB
:1000B00080E287B98BE886B980ED8DB91EB80895C6
:1000C0000F931F93CF93DF93D5DF5AD061D0C2989F
:1000D0008AEA59D0C29A81E008EC10E020E137E2C8
:1000E000D8011197F1F721503040D1F7C298C82FAD
:1000F000D0E0FE01E05AFF4F8081809544D0C29A43
:1001000080E197E2F8013197F1F70197D9F7CE0135
:1001100001966AE070E020D1E1CF1F920F920FB6F6
:100120000F9211242F933F934F935F936F937F937D
:100130008F939F93AF93BF93EF93FF9380EE8DBD0B
:1001400080EC8CBDEED080916E0090916F00019696
:1001500090936F0080936E000A9708F0CBD0FF91C8
:10016000EF91BF91AF919F918F917F916F915F912F
:100170004F913F912F910F900FBE0F901F901895A8
:1001800008958FB108958FB9779BFECF8FB10895F1
:10019000109271001092720010927000109276000E
:1001A0000895809176008F5F80937600843608F4FE
:1001B000A0C010927600809170008F5F80937000D5
:1001C0008C3308F496C010927000809172008F5F9B
:1001D000809372008C3308F48CC01092720080916E
:1001E00071008F5F80937100883108F482C0109293
:1001F0007100509173005F5F5093730040917500E0
:1002000020E030E0473011F421E030E080E090E081
:10021000453011F481E090E0282B392B80E090E00C
:10022000483011F481E090E0282B392B80E090E0F9
:100230004A3011F481E090E0282B392B80E090E0E7
:100240004C3011F481E090E0282B392B80E04130D4
:1002500009F481E090E0433009F491E0892B90E0CB
:10026000282B392B232B19F05F31C0F11EC020E061
:1002700030E04B3011F421E030E080E090E0493094
:1002800011F481E090E0282B392B80E0443009F410
:1002900081E090E0463009F491E0892B90E0282B32
:1002A000392B232B41F05E31C8F0109273004F5F61
:1002B0004093750013C0423089F48091740090E03F
:1002C00083709070892B19F45D3140F002C05C316D
:1002D00028F01092730083E0809375008091750080
:1002E0008D3038F010927500809174008F5F80938C
:1002F0007400089556DF20917100822F6AE020D0AB
:1003000080936D00822F1CD090936C00209172001E
:10031000822F16D080936B00822F12D090936A00A8
:100320000895C29880916D002EDF80916C002BDFC4
:1003300080916B0028DF80916A0025DFC29A0895C2
:10034000991B79E004C0991F961708F0961B881F27
:100350007A95C9F78095089597FB092E07260AD04C
:1003600077FD04D00CD006D000201AF4709561956A
:100370007F4F0895F6F7909581959F4F0895AA1B9A
:10038000BB1B51E107C0AA1FBB1FA617B70710F080
:10039000A61BB70B881F991F5A95A9F780959095B2
:0A03A000BC01CD010895F894FFCFD1
:0A03AA003F065B4F666D7D077F6F15
:00000001FF
